:020000040800F2
:1000000000200020B9000008F91A00080D1B0008A4
:1000100000000000000000000000000000000000E0
:10002000000000000000000000000000F91A0008B5
:100030000000000000000000F91A0008F91A00088A
:10004000F91A0008F91A0008F91A0008F91A000844
:10005000F91A0008F91A0008F91A0008F91A000834
:1000600000000000F91A0008F91A0008F91A00083F
:10007000F91A0008F91A000800000000F91A00082F
:1000800000000000F91A0008000000000000000055
:10009000F91A000800000000F91A0008F91A00080F
:1000A000F91A0008F91A0008F91A000829160008B8
:1000B000F91A0008F91A000801F09AFC01F05CFC3A
:1000C000E1235B02180001F007FA62B6C04600F0B7
:1000D00011FA024B180001F06FFBFEE764380008CC
:1000E00080B500AF0A4B0B4A5A60094B00229A6058
:1000F000074B05221A60C046054B1A6880235B0235
:100100001340F9D0024B00221A60C046BD4680BDA4
:1001100010E000E0FF7C000080B582B000AF7860A6
:1001200001E0FFF7DDFF7B685A1E7A60002BF8D1F3
:10013000C046C046BD4602B080BD80B500AF214B71
:10014000DA6A204B02210A43DA621E4B9A6B1D4B7E
:10015000802189030A439A631B4B1B681B4A1A4080
:10016000194B802189010A431A60174B1A6A164BF2
:10017000802149040A431A62134B1B68144A1A402F
:10018000114B802109020A431A600F4B1A6A0E4B69
:10019000802149050A431A620B4B5A680A4BC02159
:1001A0000A435A60084B9A68074BA021C9010A43C9
:1001B0009A60084B084A1A61064B01221A60C04631
:1001C000BD4680BD0010024000040050FFCFFFFF7D
:1001D000FF3FFFFF00540040130F427080B582B014
:1001E00000AF0200FB1D1A70BB1D0A1C1A70164BD3
:1001F00001221A60FB1D1B785B00802252021A4309
:10020000114B5A60104B5A680F4B802189010A43E9
:100210005A60C0460C4B9B6902221340FAD00A4B2D
:10022000BA1D12789A62C046074B9B694022134060
:10023000FAD0054B5A68044B8021C9010A435A6021
:10024000C046BD4602B080BD0054004080B582B0BB
:1002500000AF02003960FB1D1A70214B01221A60A9
:100260001F4B204A5A601E4B5A681D4B8021890142
:100270000A435A60C0461A4B9B6901221340012B66
:10028000F9D1174BFA1D12789A62C046144B9B693C
:1002900001221340012BF9D10120FFF73DFF104B44
:1002A00005221A600E4B104A5A600D4B5A680C4BCF
:1002B000802189010A435A60C046094B9B69042288
:1002C0001340042BF9D1064B5B6ADAB23B681A7013
:1002D0000120FFF721FF01231800BD4602B080BDB9
:1002E00000540040520001025204010280B582B065
:1002F00000AF02003960FB1D1A702A4B01221A6000
:10030000284B294A5A60274B5A68264B802189017D
:100310000A435A60C046234B9B6901221340012BBC
:10032000F9D1204BFA1D12789A62C0461D4B9B6989
:1003300001221340012BF9D10120FFF7EDFE194BEB
:1003400005221A60174B194A5A60164B5A68154B0A
:10035000802189010A435A60C046124B9B690422DE
:100360001340042BF9D10F4B5B6A9BB21B029AB26C
:100370003B681A80C0460B4B9B6904221340042B38
:10038000F9D1084B596A3B681A888BB2D3189AB2D4
:100390003B681A800120FFF7BFFE01231800BD460D
:1003A00002B080BD0054004052000102520402021B
:1003B00080B582B000AF0200FB1D1A70BB1D0A1C85
:1003C0001A70194B01221A60174B184A5A60164BC3
:1003D0005A68154B802189010A435A60C046124B66
:1003E0009B6901221340012BF9D10F4BFA1D1278A2
:1003F0009A62C0460C4B9B6901221340012BF9D134
:10040000094BBA1D12789A62C046074B9B690122BC
:100410001340012BF9D10120FFF77EFE01231800C4
:10042000BD4602B080BDC0460054004052000202EA
:1004300080B582B000AFFB1D00221A703B1D002268
:100440001A800A2002F016F9FB1D1900C020FFF7E0
:10045000FDFEFB1D1B781A00204B1100180002F056
:10046000DFF8FB1D1900C120FFF7F0FEFB1D1B7814
:100470001A001B4B1100180002F0D2F8FB1D1900E6
:10048000C220FFF7E3FEFB1D1B781A00154B11007D
:10049000180002F0C5F83B1D19005120FFF726FF98
:1004A0003B1D1B881A00104B1100180002F0B8F811
:1004B0003B1D19006120FFF719FF3B1D1B881A0027
:1004C0000A4B1100180002F0ABF8094B180002F0BB
:1004D00057F9C046BD4602B080BDC0463837000857
:1004E0004C37000860370008743700088837000868
:1004F0009C37000880B582B000AF3B1D00221A80F7
:10050000FA235B001800FFF707FE2D4B180002F0DE
:1005100087F82C4B2C4A2D492D4802F081F8FFF723
:100520000CFEFFF785FF00F037FE03001A00FB1DED
:100530001A70FB1D1B78002B04D0264B180002F00C
:100540001FF903E0244B180002F01AF9234BDA6A72
:10055000224B01210A43DA62A023DB051B68204AF3
:100560001A40A023DB05802149020A431A603B1D83
:10057000180000F043FE03001A00FB1D1A70FB1D5B
:100580001B78002BF3D03B1D1B881A00154B110064
:10059000180002F045F8144B1B689B68180001F026
:1005A000C5FD3B1D1B88C72B04D801214220FFF746
:1005B00015FEDCE700214220FFF710FED7E7C0461A
:1005C000A0370008AC370008B8370008C437000867
:1005D000CC370008103800083438000800100240FA
:1005E000FFFFFCFF543800080400002080B582B0F3
:1005F00000AFFB1D00221A70FB1D1900C020FFF781
:1006000025FE031E01D1002305E0FB1D1B78EE3BF8
:100610005A425341DBB21800BD4602B080BD80B5DE
:1006200082B000AFFB1D00221A70BB1D00221A70A1
:10063000BB1D19008920FFF709FE031E01D100230D
:1006400078E0BB1D1B7801221343DAB2BB1D1A7080
:10065000BB1D1B7819008920FFF7AAFE031E01D1DC
:10066000002367E000218820FFF7A2FE03001A00A4
:10067000FB1D511E8A411A7001218020FFF798FE50
:1006800003001A00FB1D1B781A40FB1D511E8A41F6
:100690001A700121FF20FFF78BFE03001A00FB1DDB
:1006A0001B781A40FB1D511E8A411A700021002040
:1006B000FFF77EFE03001A00FB1D1B781A40FB1D8E
:1006C000511E8A411A701D4B19009120FFF7BEFD83
:1006D00003001A00FB1D1B781A40FB1D511E8A41A6
:1006E0001A7001210020FFF763FE03001A00FB1DB2
:1006F0001B781A40FB1D511E8A411A700021FF20F1
:10070000FFF756FE03001A00FB1D1B781A40FB1D65
:10071000511E8A411A7000218020FFF749FE030014
:100720001A00FB1D1B781A40FB1D511E8A411A70CE
:10073000FB1D1B781800BD4602B080BD680000207C
:1007400080B582B000AF0121FF20FFF731FE03002A
:100750001A00FB1D511E8A411A7000210020FFF76C
:1007600027FE03001A00FB1D1B781A40FB1D511EBB
:100770008A411A700021FF20FFF71AFE03001A00B9
:10078000FB1D1B781A40FB1D511E8A411A70002167
:100790000920FFF70DFE03001A00FB1D1B781A400D
:1007A000FB1D511E8A411A7000211020FFF700FE28
:1007B00003001A00FB1D1B781A40FB1D511E8A41C5
:1007C0001A7000211120FFF7F3FD03001A00FB1D32
:1007D0001B781A40FB1D511E8A411A7001212420EA
:1007E000FFF7E6FD03001A00FB1D1B781A40FB1DF6
:1007F000511E8A411A70FF212520FFF7D9FD030001
:100800001A00FB1D1B781A40FB1D511E8A411A70ED
:1008100000217520FFF7CCFD03001A00FB1D1B789B
:100820001A40FB1D511E8A411A700121FF20FFF75B
:10083000BFFD03001A00FB1D1B781A40FB1D511E53
:100840008A411A702C214E20FFF7B2FD03001A00D6
:10085000FB1D1B781A40FB1D511E8A411A70002196
:100860004820FFF7A5FD03001A00FB1D1B781A4066
:10087000FB1D511E8A411A7020213020FFF798FD80
:1008800003001A00FB1D1B781A40FB1D511E8A41F4
:100890001A700021FF20FFF78BFD03001A00FB1DDB
:1008A0001B781A40FB1D511E8A411A700921302005
:1008B000FFF77EFD03001A00FB1D1B781A40FB1D8D
:1008C000511E8A411A7000215420FFF771FD030068
:1008D0001A00FB1D1B781A40FB1D511E8A411A701D
:1008E00004213120FFF764FD03001A00FB1D1B7873
:1008F0001A40FB1D511E8A411A7003213220FFF756
:1009000057FD03001A00FB1D1B781A40FB1D511EEA
:100910008A411A7083214020FFF74AFD03001A0024
:10092000FB1D1B781A40FB1D511E8A411A702521A0
:100930004620FFF73DFD03001A00FB1D1B781A40FF
:10094000FB1D511E8A411A7000216020FFF730FD07
:1009500003001A00FB1D1B781A40FB1D511E8A4123
:100960001A7000212720FFF723FD03001A00FB1D4A
:100970001B781A40FB1D511E8A411A700621502017
:10098000FFF716FD03001A00FB1D1B781A40FB1D24
:10099000511E8A411A7000215120FFF709FD030002
:1009A0001A00FB1D1B781A40FB1D511E8A411A704C
:1009B00096215220FFF7FCFC03001A00FB1D1B7858
:1009C0001A40FB1D511E8A411A7008215620FFF75C
:1009D000EFFC03001A00FB1D1B781A40FB1D511E83
:1009E0008A411A7030215720FFF7E2FC03001A00F9
:1009F000FB1D1B781A40FB1D511E8A411A700021F5
:100A00006120FFF7D5FC03001A00FB1D1B781A407C
:100A1000FB1D511E8A411A7000216220FFF7C8FC9D
:100A200003001A00FB1D1B781A40FB1D511E8A4152
:100A30001A7000216420FFF7BBFC03001A00FB1DA5
:100A40001B781A40FB1D511E8A411A700021652037
:100A5000FFF7AEFC03001A00FB1D1B781A40FB1DBC
:100A6000511E8A411A70A0216620FFF7A1FC0300E5
:100A70001A00FB1D1B781A40FB1D511E8A411A707B
:100A80000121FF20FFF794FC03001A00FB1D1B78D7
:100A90001A40FB1D511E8A411A7032212220FFF795
:100AA00087FC03001A00FB1D1B781A40FB1D511E1A
:100AB0008A411A7014214720FFF77AFC03001A00BC
:100AC000FB1D1B781A40FB1D511E8A411A70FF2125
:100AD0004920FFF76DFC03001A00FB1D1B781A402C
:100AE000FB1D511E8A411A7000214A20FFF760FC4D
:100AF00003001A00FB1D1B781A40FB1D511E8A4182
:100B00001A700021FF20FFF753FC03001A00FB1DA1
:100B10001B781A40FB1D511E8A411A700A217A2047
:100B2000FFF746FC03001A00FB1D1B781A40FB1D53
:100B3000511E8A411A7000217B20FFF739FC030007
:100B40001A00FB1D1B781A40FB1D511E8A411A70AA
:100B500021217820FFF72CFC03001A00FB1D1B78D5
:100B60001A40FB1D511E8A411A700121FF20FFF718
:100B70001FFC03001A00FB1D1B781A40FB1D511EB1
:100B80008A411A7034212320FFF712FC03001A0057
:100B9000FB1D1B781A40FB1D511E8A411A70002153
:100BA0004220FFF705FC03001A00FB1D1B781A40CA
:100BB000FB1D511E8A411A70FF214420FFF7F8FBEC
:100BC00003001A00FB1D1B781A40FB1D511E8A41B1
:100BD0001A7026214520FFF7EBFB03001A00FB1DCE
:100BE0001B781A40FB1D511E8A411A7005214620B0
:100BF000FFF7DEFB03001A00FB1D1B781A40FB1DEC
:100C0000511E8A411A7040214020FFF7D1FB03009A
:100C10001A00FB1D1B781A40FB1D511E8A411A70D9
:100C200006210E20FFF7C4FB03001A00FB1D1B78F2
:100C30001A40FB1D511E8A411A701A212020FFF70D
:100C4000B7FB03001A00FB1D1B781A40FB1D511E49
:100C50008A411A7040214320FFF7AAFB03001A00C3
:100C6000FB1D1B781A40FB1D511E8A411A70002182
:100C7000FF20FFF79DFB03001A00FB1D1B781A40A5
:100C8000FB1D511E8A411A7003213420FFF790FB8F
:100C900003001A00FB1D1B781A40FB1D511E8A41E0
:100CA0001A7044213520FFF783FB03001A00FB1D57
:100CB0001B781A40FB1D511E8A411A700121FF202A
:100CC000FFF776FB03001A00FB1D1B781A40FB1D83
:100CD000511E8A411A7004213120FFF769FB03007D
:100CE0001A00FB1D1B781A40FB1D511E8A411A7009
:100CF00009214B20FFF75CFB03001A00FB1D1B784A
:100D00001A40FB1D511E8A411A7005214C20FFF725
:100D10004FFB03001A00FB1D1B781A40FB1D511EE0
:100D20008A411A7004214D20FFF742FB03001A008C
:100D3000FB1D1B781A40FB1D511E8A411A700021B1
:100D4000FF20FFF735FB03001A00FB1D1B781A403C
:100D5000FB1D511E8A411A7000214420FFF728FB19
:100D600003001A00FB1D1B781A40FB1D511E8A410F
:100D70001A7020214520FFF71BFB03001A00FB1D02
:100D80001B781A40FB1D511E8A411A70082147200A
:100D9000FFF70EFB03001A00FB1D1B781A40FB1D1A
:100DA000511E8A411A7028214820FFF701FB0300D9
:100DB0001A00FB1D1B781A40FB1D511E8A411A7038
:100DC00000216720FFF7F4FA03001A00FB1D1B78CF
:100DD0001A40FB1D511E8A411A7004217020FFF732
:100DE000E7FA03001A00FB1D1B781A40FB1D511E79
:100DF0008A411A7001217120FFF7DAFA03001A0004
:100E0000FB1D1B781A40FB1D511E8A411A70FE21E2
:100E10007220FFF7CDFA03001A00FB1D1B781A4061
:100E2000FB1D511E8A411A7000217620FFF7C0FA7F
:100E300003001A00FB1D1B781A40FB1D511E8A413E
:100E40001A7000217720FFF7B3FA03001A00FB1D88
:100E50001B781A40FB1D511E8A411A700121FF2088
:100E6000FFF7A6FA03001A00FB1D1B781A40FB1DB2
:100E7000511E8A411A7001210D20FFF799FA0300D3
:100E80001A00FB1D1B781A40FB1D511E8A411A7067
:100E90000021FF20FFF78CFA03001A00FB1D1B78CE
:100EA0001A40FB1D511E8A411A7001218020FFF754
:100EB0007FFA03001A00FB1D1B781A40FB1D511E10
:100EC0008A411A70F8210120FFF772FA03001A0014
:100ED000FB1D1B781A40FB1D511E8A411A7001210F
:100EE000FF20FFF765FA03001A00FB1D1B781A406C
:100EF000FB1D511E8A411A7001218E20FFF758FAFE
:100F000003001A00FB1D1B781A40FB1D511E8A416D
:100F10001A7001210020FFF74BFA03001A00FB1D95
:100F20001B781A40FB1D511E8A411A700021FF20B8
:100F3000FFF73EFA03001A00FB1D1B781A40FB1D49
:100F4000511E8A411A7000218020FFF731FA0300F8
:100F50001A00FB1D1B781A40FB1D511E8A411A7096
:100F6000FB1D1B781800BD4602B080BD80B582B065
:100F700000AFFB1D00221A7004210A20FFF718FAA7
:100F8000031E01D1002322E0FB1D19008420FFF77E
:100F90005DF9031E01D1002319E0FB1D1B7810220F
:100FA0009343DAB2FB1D1A70FB1D1B7819008420D5
:100FB000FFF7FEF9031E01D1002308E001210B20F9
:100FC000FFF7F6F9031E01D1002300E0012318000A
:100FD000BD4602B080BD80B582B000AF0200FB1DEF
:100FE0001A70FB1D1B7819000120FFF7E1F90300BF
:100FF0005A1E9341DBB21800BD4602B080BD80B5D9
:1010000000AFFFF79DFB03001A0001235340DBB242
:10101000002B01D0002317E0FFF7A8FF03001A0000
:1010200001235340DBB2002B01D000230CE0E82069
:10103000FFF7D1FF03001A0001235340DBB2002B5E
:1010400001D0002300E001231800BD4680BD90B50B
:1010500085B000AF0200FB1D1A700F23FB180022A1
:101060001A700E23FB1800221A700C23FB180022A2
:101070001A700D23FB1800221A70FB1D1B78002B21
:1010800002D0012B09D011E00E23FB1801221A70A7
:101090000F23FB1841221A7008E00E23FB180222CE
:1010A0001A700F23FB1801221A70C0460E23FB187A
:1010B0001B7819000120FFF77BF9031E01D10023E3
:1010C0003CE00F23FB181B7819000020FFF770F994
:1010D000031E01D1002331E00C243B191900132019
:1010E000FFF7B4F803001A000D203B18511E8A4187
:1010F0001A703B181B78002B05D03B191B781A007F
:1011000007231340E8D00D23FB181B78012253401E
:10111000DBB2002B01D0002310E001210B20FFF7F0
:1011200047F9031E01D1002308E000210020FFF74A
:101130003FF9031E01D1002300E001231800BD4642
:1011400005B090BD80B500AF0020FFF780FF030021
:101150001A0001235340DBB2002B01D0002318E01A
:101160000120FFF774FF03001A0001235340DBB294
:10117000002B01D000230CE0E820FFF72CFF030038
:101180001A0001235340DBB2002B01D0002300E002
:1011900001231800BD4680BD80B500AFFFF726FAD9
:1011A00003001A0001235340DBB2002B01D00023BF
:1011B00021E0FFF734FA03001A0001235340DBB2A9
:1011C000002B01D0002316E0FFF719FF03001A00DF
:1011D00001235340DBB2002B01D000230BE0FFF7CB
:1011E000B1FF03001A0001235340DBB2002B01D0F2
:1011F000002300E001231800BD4680BD90B585B0F6
:1012000000AF78600E23FB1800221A700D23FB1824
:1012100000221A7001218020FFF7CAF803001A008B
:101220000F243B19511E8A411A700121FF20FFF73C
:10123000BFF803001A003B191B781A403B19511ED6
:101240008A411A7000210020FFF7B2F803001A004B
:101250003B191B781A403B19511E8A411A70564B94
:101260001B7819009120FFF7A3F803001A003B191F
:101270001B781A403B19511E8A411A700121002027
:10128000FFF796F803001A003B191B781A403B1928
:10129000511E8A411A700021FF20FFF789F80300D0
:1012A0001A003B191B781A403B19511E8A411A70CB
:1012B00000218020FFF77CF803001A003B191B78FF
:1012C0001A403B19511E8A411A703B191B780122A2
:1012D0005340DBB2002B01D0002368E00121002045
:1012E000FFF766F8031E01D1002360E00E243B19CE
:1012F00019000020FEF7AAFF03001A000F203B1878
:10130000511E8A411A703B181B78002B05D03B19DF
:101310001B781A0001231340E8D10F23FB181B7818
:1013200001225340DBB2002B01D000233FE00D240B
:101330003B1919001320FEF789FF03001A000F2044
:101340003B18511E8A411A703B181B78002B05D0A0
:101350003B191B781A0007231340E8D00F23FB1812
:101360001B7801225340DBB2002B01D000231EE08A
:101370007B6819001E20FEF7B9FF031E01D1002370
:1013800015E001210B20FFF713F8031E01D1002304
:101390000DE07B681B88094A934204D07B681B8858
:1013A000074A934202D17B68044A1A80012318003D
:1013B000BD4605B090BDC04668000020FE1F00007D
:1013C000FF1F000090B585B000AF78603960184B02
:1013D0001B68002B02D101235B4224E00023FB6049
:1013E0000AE0FB685A1CFA603A68D418114B1800DE
:1013F00000F0ADF9030023707B68013B1A00FB6825
:10140000934205D20B4B180000F0CCF9031EE8D133
:10141000FB68002B06D03A68FB68D31800221A70CC
:10142000FB6800E000231800BD4605B090BDC04633
:10143000040100206C00002080B584B000AF78600B
:101440003960224B1B68002B02D101235B4238E03C
:101450007B683F2B0BDCC0461D4B180000F0A2F947
:1014600003004022D21A7B689A42F5D302E002239D
:101470005B4226E00023FB600BE03A68FB68D31870
:101480001A78134B1100180000F030F9FB68013393
:10149000FB607B68FA689A42EFD30E4B1B68082208
:1014A00013400DD10B4B1A680A4B08210A431A60EE
:1014B000074B180000F04BF903001A00054B9A6225
:1014C00000231800BD4604B080BDC04604010020C2
:1014D000B80000200038014080B584B000AF7860CB
:1014E00072B6C046454B00229A64444B9A6C434BFB
:1014F0005A64424B5A6C414B1A64414B00229A6425
:101500003F4B9A6C3E4B5A643D4B5A6C3C4B1A64B1
:101510003C4B01221A603C4B00221A603B4BDA6ABA
:101520003A4B01210A43DA62394BFB607968F8686B
:1015300000F044FC0300FB60A023DB059A68A023B5
:10154000DB058021C9020A439A60A023DB055A68A3
:10155000A023DB052F490A405A60A023DB051B6846
:101560002D4A1A40A023DB05802109030A431A6093
:10157000A023DB055A6AA023DB0540210A435A62F7
:10158000A023DB051B68254A1A40A023DB05802128
:1015900089030A431A60A023DB055A6AA023DB05EE
:1015A0008021C9000A435A62184B5A6B174B80219D
:1015B000C9010A435A631A4B1A68194B6C210A4332
:1015C0001A60174B00225A60154B00229A60144B88
:1015D000FA68DA60124B1A68114B01210A431A604B
:1015E000104B1A680F4B802109050A431A6062B636
:1015F000C046C046BD4604B080BDC0466C00002059
:10160000B800002004010020080100200010024062
:101610000048E801FFFDFFFFFFFFF3FFFFFFCFFFE3
:101620000038014000E100E080B500AF084BDB6905
:101630008022134001D000F025F8054BDB69202201
:10164000134001D000F006F8C046BD4680BDC0463C
:101650000038014080B500AF074B5B6ADAB2074B38
:101660001100180000F042F8031E02D0044B0122C2
:101670001A60C046BD4680BD003801406C000020A5
:101680000801002080B500AF164B180000F08AF862
:10169000031E08D0134B180000F059F803001A007D
:1016A000114B9A621BE0104B1A680F4B08218A43BA
:1016B0001A600D4BDB694022134005D00A4B1A6AB1
:1016C000094B40210A431A62074BDB698022134011
:1016D00005D0054B9A69044B10210A439A61C04614
:1016E000BD4680BDB80000200038014080B582B002
:1016F00000AF78600A00FB1C1A707B681A6C7B686C
:101700005B6C9A4205D17B689B6C002B01D0012356
:1017100019E072B6C0467B681B6C591C7A6811646C
:101720007A68F91C0978D1547B689B6C5A1C7B68D9
:101730009A647B681B6C402B02D17B6800221A6480
:1017400062B6C04600231800BD4602B080BD80B519
:1017500084B000AF78607B689B6C002B01D10023C4
:101760001CE072B6C0467B685B6C591C7A68516499
:101770000F22BA187968CB5C13707B685B6C402BC6
:1017800002D17B6800225A647B689B6C5A1E7B687E
:101790009A6462B6C0460F23FB181B781800BD463A
:1017A00004B080BD80B582B000AF78607B689B6C70
:1017B0001800BD4602B080BD80B582B000AF786031
:1017C0000B4B1B68002B09D101235B420BE07B68AC
:1017D0005A1C7A6019000120FFF72EFE7B681B78E7
:1017E000002BF4D100231800BD4602B080BDC046D6
:1017F0000401002080B582B000AF0200FB1D1A700A
:10180000FB1D19000120FFF717FEC046BD4602B0C0
:1018100080BD80B500AF044B1800FFF798FF0300B0
:101820001800BD4680BDC0466C000020B0B584B035
:1018300000AF786039601E4B1B68002B02D101237A
:101840005B4231E00023FB600B23FB1800221A707F
:1018500017E0C046174B1800FFF7A4FF031EF9D08E
:101860000B257C19134B1800FFF771FF0300237041
:10187000FB685A1CFA601A007B689B187A19127868
:101880001A703B68013BFA689A4204DA0B23FB1892
:101890001B780D2BDDD1FB68002B04DDFB687A681B
:1018A000D31800221A70FB681800BD4604B0B0BD02
:1018B000040100206C00002090B583B000AFFC1D37
:1018C000FFF7A7FF03002370FB1D1B781800FFF72D
:1018D00091FFFB1D1B781800BD4603B090BDB0B54D
:1018E00084B000AF78603960214B1B68002B02D1B7
:1018F00001235B4237E00023FB600B23FB1800222F
:101900001A701DE0C0461B4B1800FFF74BFF031E6B
:10191000F9D00B257C19174B1800FFF718FF0300AF
:1019200023702C003B191B781800FFF763FFFB683E
:101930005A1CFA601A007B689B183A1912781A70C0
:101940003B68013BFA689A4204DA0B23FB181B78C8
:101950000D2BD7D1FB68002B04DDFB687A68D31808
:1019600000221A70FB681800BD4604B0B0BDC04626
:10197000040100206C00002080B582B000AF164B3F
:101980007B60164B3B6007E07A68131D7B603B6809
:10199000191D396012681A603A68114B9A42F3D3E4
:1019A00004E03B681A1D3A6000221A603A680D4B49
:1019B0009A42F6D30C4B3B6004E03B681A1D3A6038
:1019C0001B6898473A68094B9A42F6D3C046C0460E
:1019D000BD4602B080BDC046783900080000002036
:1019E00068000020300100207839000878390008AC
:1019F00080B500AF3B4B1A683A4B01210A431A608D
:101A0000C046384B1B6804221340FAD0354B0122E4
:101A1000DA60C046334BDB680C221340042BF9D14B
:101A2000314B1A68304B02210A431A602E4B1A6858
:101A30002D4B01210A431A602A4B9A6B294B8021B6
:101A400049050A439A63294B802212011A60C04655
:101A5000264B5B6810221340FAD1224BDA68214BE7
:101A600023490A40DA601F4BDA681E4B8821C903FC
:101A70000A43DA601B4A1B4BD268DA60194A194BD9
:101A8000D268DA60174A174BD268DA60154B1A68C9
:101A9000144B18490A401A60124B1A68114B8021E6
:101AA00049040A431A60C0460E4B1A6880239B04FF
:101AB0001340F9D00B4BDA680A4B03218A43DA60F2
:101AC000084BDA68074B03210A43DA60C046054B2E
:101AD000DB680C2213400C2BF9D1C046C046BD4632
:101AE00080BDC0460010024000200240007000404F
:101AF000FFFF02FFFFFFFFFE80B500AF024B1800A3
:101B0000FFF75AFEFEE7C0468C38000880B500AFEC
:101B1000024B1800FFF750FEFEE7C046BC38000835
:101B200080B582B000AF7860FEE780B582B000AFCC
:101B3000786001235B421800BD4602B080BD80B5CD
:101B400084B000AFF860B9607A60044B0C221A6070
:101B500001235B421800BD4604B080BD180100207F
:101B600080B500AF034B0B221A6001235B421800C3
:101B7000BD4680BD1801002080B582B000AF7860FE
:101B800039603B68802292015A6000231800BD46EC
:101B900002B080BD80B500AF01231800BD4680BDF6
:101BA00080B582B000AF78603960044B16221A60AD
:101BB00001235B421800BD4602B080BD1801002021
:101BC00080B582B000AF78603960044B1F221A6084
:101BD00001235B421800BD4602B080BD1801002001
:101BE00080B584B000AFF860B9607A600023180057
:101BF000BD4604B080BD80B582B000AF786039606A
:101C00003B68802292015A6000231800BD4602B052
:101C100080BD80B582B000AF786001235B421800C0
:101C2000BD4602B080BD80B582B000AF7860044B85
:101C300002221A6001235B421800BD4602B080BD3B
:101C40001801002080B582B000AF7860044B0A22F2
:101C50001A6001235B421800BD4602B080BDC04639
:101C60001801002080B582B000AF78607B68022B3D
:101C700001D8012303E0044B09221A600023180055
:101C8000BD4602B080BDC0461801002080B586B0B8
:101C900000AF7860124B7B61124B3B61124B1B68AB
:101CA000002B02D1104B7A691A600F4B1B68FB6046
:101CB0000D4B1A687B68D3183A699A4205D20B4BD0
:101CC0000C221A6001235B4206E0074B1A687B680E
:101CD000D218054B1A60FB681800BD4606B080BDDF
:101CE0003001002000100020140100201801002005
:101CF00080B588B000AFF860B9607A600023BB613E
:101D0000FB68002B22D10023FB611AE0FFF781FD65
:101D100003001A0017217B181A70BB685A1CBA609E
:101D20007A181278D2B21A70BB690133BB617B1882
:101D30001B78DBB20A2B01D1BB690EE0FB690133D2
:101D4000FB61FA697B689A42E0DB05E0054B0922FA
:101D50001A6001235B4200E0BB691800BD4608B071
:101D600080BDC0461801002080B586B000AFF86085
:101D7000B9607A60FB68013B012B11D800237B61BD
:101D800009E0BB685A1CBA601B781800FFF732FDE7
:101D90007B6901337B617A697B689A42F1DB05E0FC
:101DA000054B09221A6001235B4200E07B681800A2
:101DB000BD4606B080BDC0461801002003460B4357
:101DC0007FD4002243088B4274D303098B425FD334
:101DD000030A8B4244D3030B8B4228D3030C8B4260
:101DE0000DD3FF22090212BA030C8B4202D3121246
:101DF000090265D0030B8B4219D300E0090AC30B1B
:101E00008B4201D3CB03C01A5241830B8B4201D3C7
:101E10008B03C01A5241430B8B4201D34B03C01AB0
:101E20005241030B8B4201D30B03C01A5241C30A28
:101E30008B4201D3CB02C01A5241830A8B4201D399
:101E40008B02C01A5241430A8B4201D34B02C01A83
:101E50005241030A8B4201D30B02C01A5241CDD228
:101E6000C3098B4201D3CB01C01A524183098B4273
:101E700001D38B01C01A524143098B4201D34B015C
:101E8000C01A524103098B4201D30B01C01A5241BF
:101E9000C3088B4201D3CB00C01A524183088B4246
:101EA00001D38B00C01A524143088B4201D34B002F
:101EB000C01A5241411A00D20146524110467047A1
:101EC0005DE0CA0F00D04942031000D340425340A6
:101ED00000229C4603098B422DD3030A8B4212D366
:101EE000FC22890112BA030A8B420CD38901921198
:101EF0008B4208D3890192118B4204D389013AD0D5
:101F0000921100E08909C3098B4201D3CB01C01AA9
:101F1000524183098B4201D38B01C01A52414309BC
:101F20008B4201D34B01C01A524103098B4201D3AA
:101F30000B01C01A5241C3088B4201D3CB00C01A17
:101F4000524183088B4201D38B00C01A5241D9D22F
:101F500043088B4201D34B00C01A5241411A00D2B0
:101F60000146634652415B10104601D34042002BAC
:101F700000D54942704763465B1000D3404201B52B
:101F8000002000F005F802BD0029F8D016E77047E0
:101F90007047C046F7B58B8905000C001A075FD45F
:101FA0004A68002A04DC0A6C002A01DC0020FEBD1D
:101FB000E76A002FFAD0002280212E682A601A00DA
:101FC00049010A400B4234D0606DA3895B0706D5F6
:101FD0006368C01A636B002B01D0236CC01A020027
:101FE000216A00232800E76AB847A189431C06D16B
:101FF0002B681D2B31D82C4ADA40D3072DD500236E
:10200000636023692360CB0405D5431C02D12B6890
:10201000002B00D16065616B2E600029C6D02300C3
:102020004433994202D0280000F004FA0020606393
:10203000BDE701232800216AB847431CC5D12B689E
:10204000002BC2D01D2B01D0162B01D12E60ADE785
:102050004023A2891343A381A9E740230B43FAE756
:102060000F69002FA2D00A680F60D21B01920022D4
:102070009B0700D14A69A260019B002B00DC95E719
:102080003A002800019B216AA66AB047002806DCB6
:1020900040230120A28940421343A38187E7019B8B
:1020A0003F181B1A0193E7E7010040200B6970B548
:1020B00005000C00002B02D10025280070BD00286F
:1020C00004D08369002B01D100F0C8F8144B9C4266
:1020D0001BD16C680C22A35E002BEDD0626ED20780
:1020E00004D49B0502D4A06D00F094F928002100CF
:1020F000FFF750FF636E0500DB07DED4A3899B0565
:10210000DBD4A06D00F08CF9D7E7064B9C4201D1DF
:10211000AC68DFE7044B9C42DCD1EC68DAE7C046F0
:102120000039000820390008E0380008010010B527
:10213000002805D1054B0649186800F046F910BD86
:10214000044B1868FFF7B2FFF9E7C04640390008B2
:10215000AD20000804000020002310B50400036037
:1021600043608360818143661900C28103614361DA
:10217000836108225C3000F054F9054B24626362ED
:10218000044BA362044BE362044B236310BDC046BF
:10219000B9270008E52700081D280008492800087D
:1021A00010B5024900F011F910BDC046AD2000087D
:1021B000436E10B5DB0705D483899B0502D4806D7F
:1021C00000F028F9002010BD436E10B5DB0705D4E0
:1021D00083899B0502D4806D00F022F9002010BD98
:1021E00070B568254A1E55430E002900743100F071
:1021F0008DF9041E08D000212A00016046600C30D1
:10220000A060683200F00DF9200070BD10B5024BDF
:102210001868FFF7C5FF10BD4039000810B5024827
:1022200000F0F8F810BDC0462201002010B50248A9
:1022300000F0F6F810BDC0462201002010B502489B
:1022400000F0E8F810BDC0462301002010B5024898
:1022500000F0E6F810BDC0462301002013B50400CD
:10226000FFF7ECFFA369002B02D0FFF7EFFF13BDD0
:10227000A364E3642365134B134A1B68A2620193B2
:10228000A34201D10123A361200000F01FF8606088
:10229000200000F01BF8A060200000F017F80022DA
:1022A0000421E0606068FFF757FF01220921A06860
:1022B000FFF752FF02221221E068FFF74DFF0123D2
:1022C000A361D2E740390008A1210008F8B5070052
:1022D000FFF7A4FF1F4B1E68B369002B02D130002B
:1022E000FFF7BCFF4836B4687368013B04D5336818
:1022F000002B22D03668F6E70C22A55E002D1AD1FD
:102300002000154B5830E360656600F07FF8FFF75A
:102310008DFF2000082229002560A56065602561E9
:102320006561A5615C3000F07CF86563A563A56418
:10233000E5642000F8BD6834D7E704213800FFF7D2
:102340004FFF041E3060D5D1FFF770FF0C233B60B8
:10235000EFE7C046403900080100FFFF10B5FFF766
:102360005DFF034B0349186800F014F810BDC04628
:1023700004000020B121000810B5044B044918687E
:1023800000F008F8FFF752FF10BDC046040000201F
:10239000C9210008F7B54830040000260191A5685E
:1023A0006768013F04D52468002CF8D13000FEBDD9
:1023B000AB89012B07D90E22AB5E013303D0280075
:1023C000019B984706436835EBE7F7B50400060024
:1023D0000027019148346368A5680093009B013B86
:1023E000009304D52468002CF5D13800FEBDAB89DC
:1023F000012B08D90E22AB5E013304D02900300036
:10240000019B984707436835E8E770477047704776
:102410007047704770470120704701207047704730
:10242000704703008218934200D17047197001333E
:10243000F9E7000070B50500002910D00C1F2368D3
:10244000002B00DAE418280000F082FB1D4A136814
:10245000002B05D163601460280000F081FB70BD83
:10246000A34208D9216860188342F3D118685B68D9
:1024700041182160EEE71A005B68002B01D0A342EF
:10248000F9D911685018A0420BD1206809185018CA
:1024900011608342E0D118685B6841181160536095
:1024A000DAE7A04202D90C232B60D5E72168601837
:1024B000834203D118685B684118216063605460EF
:1024C000CAE7C0462801002070B50F4E0D003168E4
:1024D0000400002902D100F05DF9306029002000DD
:1024E00000F058F9431C0AD00323C51C9D43A842A1
:1024F00007D0291A200000F04DF9431C01D1012515
:102500006D42280070BDC0462C010020F7B50322A3
:10251000CB1C9343083306001F000C2B32D20C2730
:10252000B94231D8300000F013FB324D2B681C004B
:10253000002C2ED139003000FFF7C6FF0400431CE9
:102540001ED12C682500002D4AD123682900E318EC
:102550003000019300F01EF9019B834243D12368B0
:102560000337FF1A03239F4308370C2F00D20C2791
:1025700039003000FFF7A8FF431C34D02368DF196F
:10258000276013E0002BCBDA0C23002533602800F2
:10259000FEBD2268D11B20D40B2917D9E219276070
:1025A000A34211D12A606368116053603000250096
:1025B00000F0D6FA07220B35231D9543EA1A9D42F7
:1025C000E5D05B1BA350E2E75A60ECE76268A342E8
:1025D00001D12A60EAE75A60E8E723006468A7E7C8
:1025E0002C006D68AFE70C233000336000F0B8FAC0
:1025F000CDE7C046280100200EB417B5041E04D054
:102600008369002B01D1FFF729FE06AB2000059A54
:10261000A168019300F0E2FA1EBC08BC03B01847A1
:102620000FB40B4B13B51C68002C05D0A369002B0D
:1026300002D12000FFF712FE05AB2000049AA1682A
:10264000019300F0CBFA16BC08BC04B01847C04692
:102650000400002070B504000D00002804D0836938
:10266000002B01D1FFF7FAFD29002000A26800F03D
:102670007DFD70BD084B70B51C680500002C05D0B1
:10268000A369002B02D12000FFF7E8FD29002000FC
:10269000A26800F06BFD70BD0400002070B505005D
:1026A0000E00002804D08369002B01D1FFF7D6FD6E
:1026B000AB69AC68002B02D12800FFF7CFFD2D4B92
:1026C0009C4222D16C68636EDB0705D4A3899B050D
:1026D00002D4A06DFFF79EFEA3891B0702D52369D4
:1026E000002B29D12100280000F028F9002823D050
:1026F00001256D42636EDB0705D4A3899B0502D4D7
:10270000A06DFFF78DFE280070BD1B4B9C4201D1D0
:10271000AC68D8E7194B9C42D5D1EC68D3E70136B9
:10272000A360002B04DAA2699A4216DC0A2914D0AD
:1027300023685A1C22601970A3683178013B002974
:10274000EDD1A360002B0FDA280022000A3100F03F
:1027500081F80A25431CCDD1CAE72200280000F0E9
:1027600079F8431CE8D1C3E70A2523685A1C226084
:102770001D70BFE70039000820390008E038000864
:1027800010B5034B01001868FFF788FF10BDC04665
:1027900004000020002370B5064D040008002B60E3
:1027A000FFF774FA431C03D12B68002B00D0236081
:1027B00070BDC0461801002070B50C000E25495FA1
:1027C00000F028FD002803DB636D1B18636570BDF6
:1027D000A389024A1340A381F9E7C046FFEFFFFF38
:1027E00000207047F8B51F008B8905000C0016000B
:1027F000DB0505D50E23C95E0022022300F028F96F
:10280000A389054A28001340A38132000E23E15E0C
:102810003B0000F07FF8F8BDFFEFFFFF70B50C0044
:102820000E25495F00F014F9A389421C03D1054A23
:102830001340A38170BD802252011343A3816065C0
:10284000F8E7C046FFEFFFFF10B50E23C95E00F0AA
:10285000EDF810BDF8B505000E001400002804D0F6
:102860008369002B01D1FFF7F9FC224B9C422ED14A
:102870006C68A369A360A3891B0732D52369002B69
:102880002FD023682269F7B2981A6369F6B283429F
:1028900005DC21002800FFF709FC002827D1A368E8
:1028A0000130013BA36023685A1C22601F706369DA
:1028B000834204D0A389DB0707D50A2E05D1210066
:1028C0002800FFF7F3FB002811D13000F8BD0A4BB8
:1028D0009C4201D1AC68CCE7084B9C42C9D1EC6862
:1028E000C7E72100280000F029F80028C9D00126F8
:1028F0007642EAE70039000820390008E03800088D
:1029000010B5034B0A0001001868FFF7A3FF10BDC4
:102910000400002070B50400080011001A00002314
:10292000054D2B60FFF720FA431C03D12B68002BC9
:1029300000D0236070BDC04618010020374B70B531
:102940001D6806000C00002D05D0AB69002B02D1DC
:102950002800FFF783FC324B9C420FD16C680C239C
:10296000E25E93B211072DD4D90611D409230120B8
:10297000336037331343A381404270BD294B9C42DF
:1029800001D1AC68EBE7284B9C42E8D1EC68E6E764
:102990005B0713D5616B002908D0230044339942AB
:1029A00002D03000FFF746FD002363632422A38991
:1029B0009343A38100236360236923600823A289D2
:1029C0001343A3812369002B0BD1A0218022A3896B
:1029D000890092000B40934203D02100300000F0A8
:1029E00073F80C22A35E01201A0099B20240034240
:1029F0000FD00022A26062695242A26100202269C7
:102A00008242BAD10A06B8D540221343A3810138C5
:102A1000B3E7880700D46269A260EFE704000020F2
:102A20000039000820390008E0380008002370B59C
:102A3000064D040008002B60FFF777F8431C03D114
:102A40002B68002B00D0236070BDC0461801002009
:102A500070B50400080011001A000023054D2B601A
:102A6000FFF7BEF8431C03D12B68002B00D0236076
:102A700070BDC0461801002070B50E001D000E2369
:102A8000C95E140096B0002908DA0C22B35E002259
:102A90002A601B0611D48023DB000FE06A4600F099
:102AA000CDFB0028F1DBF02301991B021940054BF7
:102AB000C9184B4259412960EDE7402300202360AB
:102AC00016B070BD00E0FFFFF7B502268B89050048
:102AD0000C00334206D023004733236023610123D7
:102AE0006361F7BD6A4601ABFFF7C6FF00990700B7
:102AF0002800FFF70BFD002808D10C22A35E9A05E1
:102B0000EFD4032293431E43A681E4E70F4BAB624D
:102B10008023A28920601343A381009B206163610D
:102B2000019B002B0DD028000E23E15E00F000FD7C
:102B3000002806D00322A38993431A0001231343DC
:102B4000A381A0890743A781CBE7C046A121000844
:102B500010B50248FFF75EFC10BDC0462101002001
:102B600010B50248FFF75CFC10BDC04621010020F3
:102B7000936810B5013B9360002B04DA9469A3427B
:102B800007DB0A2905D01368581C1060197008006B
:102B900010BDFFF75FFE0100F9E7F8B506000F0072
:102BA0001400D518AC4201D1002007E021783A008A
:102BB0003000FFF7DDFF0134431CF3D1F8BD93680B
:102BC00010B51400002B02D11800536010BD00F0A6
:102BD00047FB0023A3606360F8E70000F0B5A1B0F5
:102BE00006000C001F000392002804D08369002B0C
:102BF00001D1FFF733FB8E4B9C421CD17468636E8E
:102C0000DB0705D4A3899B0502D4A06DFFF702FC66
:102C1000A3891B0702D52369002B1DD12100300099
:102C2000FFF78CFE002817D0636EDB070DD501205F
:102C3000404221B0F0BD7F4B9C4201D1B468DEE739
:102C40007D4B9C42DBD1F468D9E7A3899B05EED488
:102C5000A06DFFF7E5FBEAE7002308AD6B612033C9
:102C60006B761033AB760797039F3B78002B01D030
:102C7000252B4ED1039BFB1A0593039B9F420DD03E
:102C8000059B21003000039AFFF787FF431C00D10A
:102C9000B5E06A69059B944663446B613B78002B01
:102CA00000D1ACE001227B1C0393002352426A60F6
:102CB00004A9543252182B60EB60AB601370AB6503
:102CC000039B052219785D4800F044FC039B5F1CC0
:102CD000002820D12A68D30604D5532304A95B1801
:102CE00020211970130704D5532304A95B182B2145
:102CF0001970039B1B782A2B16D00021EB68039FC9
:102D00003A78781C303A8446092A4FD9002911D1E3
:102D100017E00137A9E7494B2A68C01A012383400D
:102D200013432B600397CBE7079B191D1B68079183
:102D3000002B01DB0B9304E05B42EB6002231343A7
:102D40002B603B782E2B0AD17B782A2B37D1079B1F
:102D500002371A1D1B680792002B2DDB09930322F3
:102D60003978374800F0F6FB002807D0344B2A6842
:102D7000C01A40238340134301372B6039787B1CF2
:102D8000062230480393297600F0E4FB002845D062
:102D90002D4B002B27D10722079B07339343083382
:102DA00007936B69049A9B186B615DE70A214B439B
:102DB00067469B180939A3E701235B42CEE700234E
:102DC0001A0001376B603978781C3039844609293C
:102DD00003D9002BC3D00992C1E70A235A4367469F
:102DE0005218093BEFE707AB00932200290030009F
:102DF000164B00E000BF0490049B0133D1D1636EF9
:102E0000DB0705D4A3899B0502D4A06DFFF708FB5F
:102E1000A3895B0600D50AE70D980AE707AB009384
:102E2000220029003000094B00F08EF8E3E7C0468D
:102E30000039000820390008E0380008443900084B
:102E40004A3900084E390008000000009B2B00089A
:102E500010B513000A00010002480068FFF7BEFE2B
:102E600010BDC04604000020F7B5150001938A6824
:102E70000B690C000090934200DA130022002B60D3
:102E800043321278002A01D001332B6023689B065D
:102E900002D52B6802332B602268062317001F40DF
:102EA0001A4227D0230043331B785A1E93412268CD
:102EB000920630D4220001990098089E4332B04710
:102EC000431C25D0062320682A68E16800250340BA
:102ED000042B03D18D1AEB43DB171D40A368226935
:102EE000934201DD9B1AED180027BD4220D100203E
:102EF00010E00137E3682A689B1ABB42D2DD22004A
:102F0000012301990098089E1932B047431CF0D163
:102F100001204042FEBD3020E118433108702100FD
:102F20005A1C45310978A218433202331170C1E7A7
:102F30002200012301990098089E1A32B047431CD1
:102F4000E6D00137D1E70000F0B58BB006920A0059
:102F500043320793059004920A7E0C00109B782A56
:102F600007D8622A09D8002A00D1C1E0582A00D126
:102F70008CE026004236327022E0100063381528BB
:102F8000F7D800F045FB16001F00F6FFF6FFF6FF2E
:102F9000F6FF1F00F6FFF6FFF6FFF6FFA80036006B
:102FA0009A00F6FFF6FFB900F6FF3600F6FFF6FFCF
:102FB0009E0026001A684236111D1960136833708E
:102FC0000123A7E0086819680A1D05060BD50D68DE
:102FD0001A60002D03DA2D23049A6D421370614BA1
:102FE0000A2703931BE00D681A604106F1D52DB244
:102FF000EFE70D681968081D18602E0601D50D68E9
:1030000003E06D06FBD50D68ADB2564B0827039360
:103010006F2A00D002372300002243331A706368FE
:10302000A360002B03DB0422216891432160002D63
:1030300002D1049E002B0CD0049E2800390000F021
:1030400077FB039B013E5B5C33702B0005009F42C6
:10305000F3D9082F09D12368DB0706D563682269F5
:10306000934202DC3023013E3370049B9B1B23619F
:10307000079B210000930598069B09AAFFF7F4FE21
:10308000431C4CD1012040420BB0F0BD45310A70C9
:10309000344A03921A68216820CA1A60080616D5B5
:1030A000CB0702D52023194321601027002DB2D170
:1030B000202322689A432260ADE7202209680A4350
:1030C00022602200782145321170274AE1E7480644
:1030D000E6D5ADB2E4E71A680D68101D49691860BD
:1030E00013682E0601D5196002E06D06FBD5198024
:1030F0000023049E2361BBE71A68111D196016683E
:1031000000213000626800F025FA002801D0801B01
:103110006060636823610023049A1370A8E7236941
:10312000320006990598079DA847431CAAD023683A
:103130009B0715D4099BE0689842A5DA1800A3E71D
:103140002200012306990598079E1932B047431CB7
:1031500098D00135E368099A9B1AAB42F0DCE9E7A5
:103160000025F7E7553900086639000870B50600F4
:103170000D001400002804D08369002B01D1FFF753
:103180006DF81C4B9C4224D17468636EDB0705D438
:10319000A3899B0502D4A06DFFF73CF9A368013B0E
:1031A000A360002B05DAA26993421CDBEBB20A2B69
:1031B00019D023685A1C22601D70EDB2636EDB07C4
:1031C00005D4A3899B0502D4A06DFFF729F9280037
:1031D00070BD094B9C4201D1B468D6E7074B9C42B5
:1031E000D3D1F468D1E7290022003000FFF732FB89
:1031F0000500E3E70039000820390008E03800083E
:1032000010B5034B0A0001001868FFF7AFFF10BDAF
:103210000400002070B50400080011001A0000230B
:10322000054D2B60FEF764FD431C03D12B68002B7A
:1032300000D0236070BDC04618010020002370B587
:10324000064D0400080011002B60FEF795FC431C9E
:1032500003D12B68002B00D0236070BD1801002023
:10326000F0B5936887B00C0017000390002B02D1D3
:10327000002007B0F0BD8B891B0759D50B69002BC7
:1032800056D03B6802220293A389180010401342D3
:1032900075D1012201211A400B4200D1ADE0060098
:1032A00001900490049B002B00D116E100280CD162
:1032B0001A000A21300000F04DF9049B01330193FC
:1032C000002802D00130831B0193019B049A0593CF
:1032D000934200D90592206822696369904200D820
:1032E00004E1A2689D18059AAA4200DCFEE03100C4
:1032F0002A0000F043F9236821005B19039823603A
:10330000FEF7D4FE002873D1019B01205B1B0193C3
:1033100005D121000398FEF7C9FE002868D1049B5F
:1033200076195B1B0493BB685D1BBD60BAD19FE738
:1033300021000398FFF702FB0028A2D001204042A1
:1033400097E7029B1B680193029B5D680833029319
:10335000002DF6D0724A2B00954200D91300019A35
:10336000216A0398A66AB047002841DD019B2D1A07
:103370001B180193BB68181AB860E9D178E70023DD
:103380001D000193E4E7029B1B680493029B5B68AA
:103390000193029B08330293019B002BF3D08023FF
:1033A000A2899B002068A5681A4264D0019B9D42B7
:1033B00038D89023DB001A4234D02169431A032005
:1033C000059363695843059BC60F3618019801336E
:1033D0001B187610B34200D91E0053053CD53100AE
:1033E0000398FFF793F8051E0AD10C23039A136084
:1033F0004023A2891343A381A0E704920192CBE763
:10340000059A216900F0B1F8A389464A1A40802341
:103410001343A381059B2561ED1825606661019D1D
:10342000F61AA660019EB54200D935002A0004991B
:10343000206800F0A3F8A3685B1BA36023685D19F4
:103440002560049B9B190493019B9B1B0193BB6804
:103450009E1BBE60A0D10BE73200039800F0A1F8DC
:10346000051ED7D121690398FEF7E4FF8022A389C6
:103470009343A381B9E72369834203D36669019B20
:103480009E4217D9019B9D4200D91D002A00049934
:1034900000F074F8A36822685B1B52192E00A36029
:1034A0002260002BCDD121000398FEF7FFFD0028FC
:1034B000C7D09DE7019A1C4B10009A4200D91B48C7
:1034C0003100FEF77BFC3300049A4343216A0398E2
:1034D000A56AA847061EB4DC8AE7029B00201E6886
:1034E0005B680493029B08330293DBE6059A9342E0
:1034F00008DCA56A3200216A0398A847051E00DD92
:1035000002E775E7059A310000F038F8059AA368DC
:1035100015009B1AA36023689B182360F4E6C0463D
:1035200000FCFF7F7FFBFFFFFEFFFF7FFFFFFF7FB2
:10353000002370B5064D040008002B60FEF792FBD7
:10354000431C03D12B68002B00D0236070BDC04604
:1035500018010020C9B28218904201D100207047A2
:1035600003788B42FBD00130F6E7002310B59A4276
:1035700000D110BDCC5CC4540133F8E710B58842CB
:1035800002D98B18984203D3002307E08B5C835445
:10359000013AFBD210BDCC5CC45401339A42FAD13B
:1035A000F8E7F7B507000E001400002905D1110057
:1035B000FEF7ACFF05002800FEBD002A03D1FEF790
:1035C00039FF2500F7E700F01BF80190844203D88B
:1035D00035004308A342EED321003800FEF796FFE2
:1035E000051EE8D0019B22009C4200D91A00310040
:1035F0002800FFF7BAFF31003800FEF71BFFDAE7BB
:103600000B1F1B68181F002B01DA0B58C0187047DE
:1036100003B47146490840004900095E49008E44E0
:1036200003BC7047002243088B4274D303098B42CA
:103630005FD3030A8B4244D3030B8B4228D3030C82
:103640008B420DD3FF22090212BA030C8B4202D324
:103650001212090265D0030B8B4219D300E0090A4C
:10366000C30B8B4201D3CB03C01A5241830B8B4255
:1036700001D38B03C01A5241430B8B4201D34B033E
:10368000C01A5241030B8B4201D30B03C01A5241A3
:10369000C30A8B4201D3CB02C01A5241830A8B4228
:1036A00001D38B02C01A5241430A8B4201D34B0211
:1036B000C01A5241030A8B4201D30B02C01A524175
:1036C000CDD2C3098B4201D3CB01C01A5241830929
:1036D0008B4201D38B01C01A524143098B4201D363
:1036E0004B01C01A524103098B4201D30B01C01A8E
:1036F0005241C3088B4201D3CB00C01A5241830808
:103700008B4201D38B00C01A524143088B4201D334
:103710004B00C01A5241411A00D201465241104694
:103720007047FFE701B50020FEF732FC02BDC0463E
:103730000029F7D076E77047526567283078633004
:10374000293A203078253032780D0A0052656728F2
:1037500030786331293A203078253032780D0A00EC
:103760005265672830786332293A20307825303224
:10377000780D0A005265672830783531293A2030B3
:1037800078253034780D0A00526567283078363154
:10379000293A203078253034780D0A000D000000D9
:1037A0001B5B324A1B5B313B3148000031343A35F8
:1037B000323A3039000000004D6172203238203238
:1037C000303236006D61696E2E63000053544D3304
:1037D000324C3035312049324320766C35336C30F1
:1037E0007820746573742070726F6772616D0D0A52
:1037F00046696C653A2025730D0A436F6D70696CDC
:1038000065643A2025732C2025730D0A0000000002
:10381000564C35334C307820696E697469616C6937
:103820007A6174696F6E207375636365656465643E
:103830002E0D0000564C35334C307820696E69747B
:1038400069616C697A6174696F6E206661696C6523
:10385000642E0D00443A2025347520286D6D290D05
:10386000000000000D0A52657475726E6564206672
:10387000726F6D206D61696E28292E202053797337
:1038800074656D2073746F702E000000496E74654E
:10389000727275707420776974686F7574206861CE
:1038A0006E646C65722028495352292E202053796A
:1038B0007374656D2073746F702E000048617264BC
:1038C000204661756C7420696E74657272757074CF
:1038D0002E202053797374656D2073746F702E00E1
:1038E00000000000000000000000000000000000D8
:1038F00000000000000000000000000000000000C8
:1039000000000000000000000000000000000000B7
:1039100000000000000000000000000000000000A7
:103920000000000000000000000000000000000097
:103930000000000000000000000000000000000087
:1039400008000020232D302B2000686C4C00656699
:1039500067454647003031323334353637383941E0
:1039600042434445460030313233343536373839F6
:083970006162636465660000FA
:1039780010010020080000200000000000390008A5
:1039880020390008E03800080000000000000000AE
:10399800000000000000000000000000000000001F
:1039A800000000000000000000000000000000000F
:1039B80000000000000000000000000000000000FF
:1039C80000000000000000000000000000000000EF
:0839D8000000000000000000E7
:04000005080000B936
:00000001FF
