:020000040800F2
:1000000000200020B9000008490200084F02000843
:1000100000000000000000000000000000000000E0
:10002000000000000000000000000000490200087D
:10003000000000000000000049020008490200081A
:100040004902000849020008490200084902000864
:100050004902000849020008490200084902000854
:100060000000000049020008490200084902000897
:100070004902000849020008000000004902000887
:10008000000000004902000800000000000000001D
:100090004902000800000000490200087D04000831
:1000A0004902000849020008490200084902000804
:1000B000490200084902000800F042F800F004F884
:1000C00000F00AFAFEE7000080B582B000AF164BE0
:1000D0007B60164B3B6007E07A68131D7B603B68D2
:1000E000191D396012681A603A68114B9A42F3D3AD
:1000F00004E03B681A1D3A6000221A603A680D4B12
:100100009A42F6D30C4B3B6004E03B681A1D3A6000
:100110001B6898473A68094B9A42F6D3C046C046D6
:10012000BD4602B080BDC046400600080000002069
:1001300000000020040000204006000840060008DF
:1001400080B500AF3B4B1A683A4B01210A431A6055
:10015000C046384B1B6804221340FAD0354B0122AD
:10016000DA60C046334BDB680C221340042BF9D114
:10017000314B1A68304B02210A431A602E4B1A6821
:100180002D4B01210A431A602A4B9A6B294B80217F
:1001900049050A439A63294B802212011A60C0461E
:1001A000264B5B6810221340FAD1224BDA68214BB0
:1001B00023490A40DA601F4BDA681E4B8821C903C5
:1001C0000A43DA601B4A1B4BD268DA60194A194BA2
:1001D000D268DA60174A174BD268DA60154B1A6892
:1001E000144B18490A401A60124B1A68114B8021AF
:1001F00049040A431A60C0460E4B1A6880239B04C8
:100200001340F9D00B4BDA680A4B03218A43DA60BA
:10021000084BDA68074B03210A43DA60C046054BF6
:10022000DB680C2213400C2BF9D1C046C046BD46FA
:1002300080BDC04600100240002002400070004017
:10024000FFFF02FFFFFFFFFE80B500AFFEE780B5B6
:1002500000AFFEE780B582B000AF0200FB1D1A7050
:10026000FB1D1B781A001F23134001229A40034BE9
:100270001A60C046BD4602B080BDC04600E100E045
:1002800090B583B000AF02003960FB1D1A70FB1DF2
:100290001B787F2B32D92F4AFB1D1B7819000F23A7
:1002A0000B40083B9B0806339B00D31804331B68A4
:1002B000FA1D1278110003220A40D200FF2191405A
:1002C0000A00D2431A4011003B689B01FF221A40EA
:1002D000FB1D1B78180003230340DB009A401D48D8
:1002E000FB1D1B781C000F232340083B9B080A437F
:1002F00006339B00C31804331A6027E0164AFB1D1F
:100300001B785BB29B08C0339B009B58FA1D127888
:10031000110003220A40D200FF2191400A00D2437B
:100320001A4011003B689B01FF221A40FB1D1B78FD
:10033000180003230340DB009A400748FB1D1B788D
:100340005BB29B080A43C0339B001A50C046BD46AF
:1003500003B090BD00ED00E000E100E080B500AF2B
:100360000A4B0B4A5A60094B00229A60074B052240
:100370001A60C046054B1A6880235B021340F9D00F
:10038000024B00221A60C046BD4680BD10E000E06E
:10039000FF7C000080B582B000AF786001E0FFF71D
:1003A000DDFF7B685A1E7A60002BF8D1C046C0463C
:1003B000BD4602B080BD80B500AF284BDA6A274B3E
:1003C00002210A43DA62254B9A6B244B8021890370
:1003D0000A439A63224B1B68224A1A40204B802111
:1003E00089010A431A601E4B1B6A1F4A1A401C4BA4
:1003F000802149040A431A62194B1B681B4A1A40A0
:10040000174B802109020A431A60154B1B6A1B0116
:100410001A09134B802149050A431A62104B5A6886
:100420000F4BC0210A435A600D4B9A680C4BA02118
:10043000C9010A439A600E4B0E4A1A610C4B0E4AD0
:100440009A600B4B2D221A6000211720FFF718FF2E
:100450001720FFF7FFFEC046BD4680BD00100240DA
:1004600000040050FFCFFFFFFFFFFFF0FF3FFFFF43
:1004700000540040130F42708480000080B500AF2C
:10048000124B9B690822134005D0104BDA690F4BC1
:1004900008210A43DA610D4B9B690422134004D002
:1004A0000A4B5B6ADAB20A4B1A70084B9B6920222E
:1004B000134008D0054BDA69044B20210A43DA6166
:1004C000044B01221A70C046BD4680BD0054004056
:1004D000000000200100002080B500AFFFF76BFF97
:1004E00062B6C046504BDA6A4F4B01210A43DA62CA
:1004F000A023DB051B684D4A1A40A023DB058021A1
:1005000049020A431A60A023DB051B68484A1A40C7
:10051000A023DB058021C9000A431A60A023DB0564
:100520005A69A023DB05802149000A435A616420EF
:10053000FFF730FFA023DB055A69A023DB053D4907
:100540000A405A616420FFF725FFA023DB055A69A2
:10055000A023DB05802149000A435A616420FFF78C
:1005600019FFA023DB055A69A023DB0531490A40A6
:100570005A616420FFF70EFFA023DB055A69A02310
:10058000DB05802149000A435A616420FFF702FF1E
:10059000A023DB055A69A023DB0526490A405A61DE
:1005A0006420FFF7F7FE244B1B78DBB2002BFAD058
:1005B000214B00221A70214B1B78DBB2012B09D191
:1005C000A023DB055A69A023DB05802149000A43EB
:1005D0005A61E8E7194B1B78DBB2002B08D1A02346
:1005E000DB055A69A023DB0512490A405A61DAE7A4
:1005F000124B1B78DBB2022BD5D1A023DB055A6945
:10060000A023DB0520210A435A61FA235B0018006E
:10061000FFF7C0FEA023DB055A69A023DB052021DC
:100620008A435A61BFE7C04600100240FFFFFCFF4B
:10063000FFF3FFFFFFFEFFFF01000020000000208E
:04000005080000B936
:00000001FF
