:020000040800F2
:1000000000200020B9000008490200084F02000843
:1000100000000000000000000000000000000000E0
:10002000000000000000000000000000490200087D
:10003000000000000000000049020008490200081A
:100040004902000849020008490200084902000864
:100050004902000849020008490200084902000854
:100060000000000049020008490200084902000897
:100070004902000849020008000000004902000887
:10008000000000004902000800000000000000001D
:100090004902000800000000490200084D0600085F
:1000A0004902000849020008490200084902000804
:1000B000490200084902000800F042F800F004F884
:1000C00000F008FBFEE7000080B582B000AF164BE1
:1000D0007B60164B3B6007E07A68131D7B603B68D2
:1000E000191D396012681A603A68114B9A42F3D3AD
:1000F00004E03B681A1D3A6000221A603A680D4B12
:100100009A42F6D30C4B3B6004E03B681A1D3A6000
:100110001B6898473A68094B9A42F6D3C046C046D6
:10012000BD4602B080BDC046200E00080000002081
:100130004000002044000020200E0008200E00088F
:1001400080B500AF3B4B1A683A4B01210A431A6055
:10015000C046384B1B6804221340FAD0354B0122AD
:10016000DA60C046334BDB680C221340042BF9D114
:10017000314B1A68304B02210A431A602E4B1A6821
:100180002D4B01210A431A602A4B9A6B294B80217F
:1001900049050A439A63294B802212011A60C0461E
:1001A000264B5B6810221340FAD1224BDA68214BB0
:1001B00023490A40DA601F4BDA681E4B8821C903C5
:1001C0000A43DA601B4A1B4BD268DA60194A194BA2
:1001D000D268DA60174A174BD268DA60154B1A6892
:1001E000144B18490A401A60124B1A68114B8021AF
:1001F00049040A431A60C0460E4B1A6880239B04C8
:100200001340F9D00B4BDA680A4B03218A43DA60BA
:10021000084BDA68074B03210A43DA60C046054BF6
:10022000DB680C2213400C2BF9D1C046C046BD46FA
:1002300080BDC04600100240002002400070004017
:10024000FFFF02FFFFFFFFFE80B500AFFEE780B5B6
:1002500000AFFEE780B582B000AF0200FB1D1A7050
:10026000FB1D1B781A001F23134001229A40034BE9
:100270001A60C046BD4602B080BDC04600E100E045
:1002800090B583B000AF02003960FB1D1A70FB1DF2
:100290001B787F2B32D92F4AFB1D1B7819000F23A7
:1002A0000B40083B9B0806339B00D31804331B68A4
:1002B000FA1D1278110003220A40D200FF2191405A
:1002C0000A00D2431A4011003B689B01FF221A40EA
:1002D000FB1D1B78180003230340DB009A401D48D8
:1002E000FB1D1B781C000F232340083B9B080A437F
:1002F00006339B00C31804331A6027E0164AFB1D1F
:100300001B785BB29B08C0339B009B58FA1D127888
:10031000110003220A40D200FF2191400A00D2437B
:100320001A4011003B689B01FF221A40FB1D1B78FD
:10033000180003230340DB009A400748FB1D1B788D
:100340005BB29B080A43C0339B001A50C046BD46AF
:1003500003B090BD00ED00E000E100E080B500AF2B
:100360000A4B0B4A5A60094B00229A60074B052240
:100370001A60C046054B1A6880235B021340F9D00F
:10038000024B00221A60C046BD4680BD10E000E06E
:10039000FF7C000080B582B000AF786001E0FFF71D
:1003A000DDFF7B685A1E7A60002BF8D1C046C0463C
:1003B000BD4602B080BD80B582B000AF00237B6037
:1003C0001DE07B680833DBB2DB00DBB2180000F015
:1003D00078FB00233B600CE00E4A7B68DB00D21800
:1003E0003B68D3181B78180000F051FB3B680133C1
:1003F0003B603B68072BEFDD7B6801337B607B68EC
:10040000072BDEDD802000F05CFBC046BD4602B05D
:1004100080BDC0460000002080B500AF074B002221
:100420000121180000F08CFB054B0022022118006E
:1004300000F086FBC046BD4680BDC046940D000856
:10044000A80D000880B500AF074B0022012118005D
:1004500000F076FB054B00220221180000F070FB33
:10046000C046BD4680BDC046BC0D0008D00D00088A
:1004700080B500AF074B00220121180000F060FB9F
:10048000044B00220221180000F05AFBC046BD4672
:1004900080BDC046E40D000880B500AF094B0022C6
:1004A0000121180000F04CFB074B0022022118002C
:1004B00000F046FB7820FFF76DFFFFF7ADFFC04669
:1004C000BD4680BDF80D00080C0E000880B500AFD9
:1004D000284BDA6A274B02210A43DA62254B9A6BD2
:1004E000244B802189030A439A63234B1B68234AC8
:1004F0001A40214B802189010A431A601E4B1B6A56
:100500001F4A1A401C4B802149040A431A621A4BA5
:100510001B681C4A1A40184B802109020A431A60C2
:10052000154B1B6A1B011A09134B802149050A430D
:100530001A62114B5A68104BC0210A435A600E4B85
:100540009A680D4BA021C9010A439A600E4B0F4ACD
:100550001A610D4B0E4A9A600B4B2D221A60002136
:100560001720FFF78DFE1720FFF774FEC046BD462B
:1005700080BDC0460010024000040050FFCFFFFFC6
:10058000FFFFFFF0FF3FFFFF00540040130F4270DA
:100590008480000080B500AF294BDA6A284B012126
:1005A0000A43DA62A023DB051B68032293431A0087
:1005B000A023DB0501210A431A60A023DB051B6889
:1005C0000C2293431A00A023DB0504210A431A607E
:1005D000A023DB051B68302293431A00A023DB0510
:1005E00010210A431A60A023DB051B68C022934335
:1005F0001A00A023DB0540210A431A60A023DB0573
:100600001B68104A1A40A023DB05802149000A43D9
:100610001A60A023DB051B680B4A1A40A023DB05E8
:100620008021C9000A431A60A023DB055A68A02371
:10063000DB053F218A435A60C046BD4680BDC046A7
:1006400000100240FFFCFFFFFFF3FFFF80B500AF8B
:100650001C4B9B690822134008D01A4BDA69194BCE
:1006600008210A43DA61184B00221A70154B9B6966
:100670000422134014D0144B1B78DBB2012B08D892
:10068000104B596A104B1B78DBB21A00C9B20F4BE2
:1006900099540D4B1B78DBB20133DAB20A4B1A7056
:1006A000084B9B692022134008D0064BDA69054BA2
:1006B00020210A43DA61064B01221A70C046BD466A
:1006C00080BDC04600540040420000204000002091
:1006D0004300002090B585B000AFFFF7F7FE62B68B
:1006E000C046614BDA6A604B01210A43DA62A023FB
:1006F000DB051B685D4A1A40A023DB058021490207
:100700000A431A60A023DB055A69A023DB05802178
:1007100049000A435A616420FFF73CFEA023DB0531
:100720005A69A023DB0552490A405A616420FFF749
:1007300031FEA023DB055A69A023DB058021490097
:100740000A435A616420FFF725FEA023DB055A699E
:10075000A023DB0546490A405A616420FFF71AFED0
:10076000A023DB055A69A023DB05802149000A4349
:100770005A616420FFF70EFEA023DB055A69A0230F
:10078000DB053B490A405A616420FFF703FEFFF78F
:1007900001FF00F0B0F9FFF70EFEFFF73DFE00236A
:1007A000FB60344B1B78DBB2002BFAD0314B0022BC
:1007B0001A70314B1B78DBB21B021AB22E4B5B78DE
:1007C000DBB21BB213431AB20A203B181A803B1843
:1007D0001B881B0B9BB2DAB209243B190F210A407C
:1007E0001A70BB1D3A1812881205120D1A803B1997
:1007F0001B78012BD5D1BB1D1B88C72B09D8A02383
:10080000DB055A69A023DB05802149000A435A61B0
:1008100007E0A023DB055A69A023DB0514490A4041
:100820005A61BB1D1B88C72B04D8FFF721FE00238C
:10083000FB60B6E7BB1D1A88C8235B009A4204D24E
:10084000FFF700FE0023FB60ABE7FB680133FB60B2
:10085000FB68182B04DDFFF71FFE0023FB60A0E7F9
:10086000FFF7DAFD9DE7C04600100240FFFFFCFFE6
:10087000FFFEFFFF430000204000002080B582B053
:1008800000AF0200FB1D1A70FB1D1B7819001048F9
:1008900000F094F9030019000E4800F08FF90300EE
:1008A0005A1E0D4B5A600C4B00229A600A4B0522CF
:1008B0001A60C046084B1A6880235B021340F9D0C7
:1008C000054B00221A60C046BD4602B080BDC0463E
:1008D00040420F000048E80110E000E080B500AFA2
:1008E000A023DB055A69A023DB0502210A435A61D4
:1008F0002820FFF7C3FFA023DB055A69A023DB05EF
:1009000002218A435A61C046BD4680BD80B582B08F
:1009100000AF0200FB1D1A70FB1D1B785BB2002BA1
:1009200008DAA023DB055A69A023DB0520210A434E
:100930005A6107E0A023DB055A69A023DB052021CB
:100940008A435A61FB1D1B784022134008D0A02324
:10095000DB055A69A023DB0510210A435A6107E031
:10096000A023DB055A69A023DB0510218A435A61C5
:10097000FB1D1B782022134008D0A023DB055A69F9
:10098000A023DB0508210A435A6107E0A023DB0509
:100990005A69A023DB0508218A435A61FB1D1B7895
:1009A0001022134008D0A023DB055A69A023DB05E1
:1009B00004210A435A6107E0A023DB055A69A023FA
:1009C000DB0504218A435A61FFF788FF2820FFF7DF
:1009D00055FFFB1D1B780822134008D0A023DB0520
:1009E0005A69A023DB0520210A435A6107E0A023AE
:1009F000DB055A69A023DB0520218A435A61FB1DD0
:100A00001B780422134008D0A023DB055A69A023D9
:100A1000DB0510210A435A6107E0A023DB055A6970
:100A2000A023DB0510218A435A61FB1D1B7802229B
:100A3000134008D0A023DB055A69A023DB05082159
:100A40000A435A6107E0A023DB055A69A023DB05AE
:100A500008218A435A61FB1D1B780122134008D0EC
:100A6000A023DB055A69A023DB0504210A435A6150
:100A700007E0A023DB055A69A023DB0504218A4394
:100A80005A61FFF72BFFC046BD4602B080BD80B55E
:100A900082B000AF0200FB1D1A70A023DB055A696B
:100AA000A023DB0501210A435A61FB1D1B781800B6
:100AB000FFF72CFF0220FFF76DFCC046BD4602B0D9
:100AC00080BD80B582B000AF0200FB1D1A70A0236C
:100AD000DB055A69A023DB0501218A435A61FB1D0E
:100AE0001B781800FFF712FF0520FFF753FCC046E4
:100AF000BD4602B080BD80B500AFA023DB055A69BA
:100B0000A023DB0502218A435A611420FFF742FC2F
:100B10003320FFF7D6FF3320FFF7D3FF3220FFF754
:100B2000D0FF2820FFF7CDFF0C20FFF7CAFF0120E0
:100B3000FFF7C7FF1420FFF72DFCC046BD4680BD60
:100B400080B584B000AF786008001100FB1C021C67
:100B50001A70BB1C0A1C1A70FB1C1B78022B01D1DB
:100B6000C02300E080231800FFF7ABFF0520FFF74C
:100B700011FC0023FB6009E0FB687A68D3181B783E
:100B80001800FFF784FFFB680133FB60FB687A689D
:100B9000D3181B78002BEFD1BB1C1B78002B09D07E
:100BA00005E02020FFF773FFFB680133FB60FB6863
:100BB0000F2BF6DDC046BD4604B080BD03460B4397
:100BC0007FD4002243088B4274D303098B425FD346
:100BD000030A8B4244D3030B8B4228D3030C8B4272
:100BE0000DD3FF22090212BA030C8B4202D3121258
:100BF000090265D0030B8B4219D300E0090AC30B2D
:100C00008B4201D3CB03C01A5241830B8B4201D3D9
:100C10008B03C01A5241430B8B4201D34B03C01AC2
:100C20005241030B8B4201D30B03C01A5241C30A3A
:100C30008B4201D3CB02C01A5241830A8B4201D3AB
:100C40008B02C01A5241430A8B4201D34B02C01A95
:100C50005241030A8B4201D30B02C01A5241CDD23A
:100C6000C3098B4201D3CB01C01A524183098B4285
:100C700001D38B01C01A524143098B4201D34B016E
:100C8000C01A524103098B4201D30B01C01A5241D1
:100C9000C3088B4201D3CB00C01A524183088B4258
:100CA00001D38B00C01A524143088B4201D34B0041
:100CB000C01A5241411A00D20146524110467047B3
:100CC0005DE0CA0F00D04942031000D340425340B8
:100CD00000229C4603098B422DD3030A8B4212D378
:100CE000FC22890112BA030A8B420CD389019211AA
:100CF0008B4208D3890192118B4204D389013AD0E7
:100D0000921100E08909C3098B4201D3CB01C01ABB
:100D1000524183098B4201D38B01C01A52414309CE
:100D20008B4201D34B01C01A524103098B4201D3BC
:100D30000B01C01A5241C3088B4201D3CB00C01A29
:100D4000524183088B4201D38B00C01A5241D9D241
:100D500043088B4201D34B00C01A5241411A00D2C2
:100D60000146634652415B10104601D34042002BBE
:100D700000D54942704763465B1000D3404201B53D
:100D8000002000F005F802BD0029F8D016E77047F2
:100D90007047C04620202001022020202020200172
:100DA000022020200000000020202003042020201A
:100DB0002020200304202020000000002020050621
:100DC00020202020202020200506202000000000D8
:100DD0002020070720202020202020200707202077
:100DE0000000000020203E2E3C202020202020203B
:100DF0003E2E3C202000000020202020202020200B
:100E00002020202020202020000000002020205F23
:100E10005F2020202020205F5F2020200000000095
:100E20000000000000000000070F1F1F1F1F0F071A
:100E30001C1E1F1F1F1F1E1C070F1F1F1F1F0F071A
:100E40001C1E1F1F1F1F1E1C030F1F1F1F1F1F1FE6
:100E5000181E1F1F1F1F1F1F1F1F1F1F1F1F0F03D6
:04000005080000B936
:00000001FF
