:020000040800F2
:1000000000200020B9000008490200084F02000843
:1000100000000000000000000000000000000000E0
:10002000000000000000000000000000490200087D
:10003000000000000000000049020008490200081A
:100040004902000849020008490200084902000864
:100050004902000849020008490200084902000854
:100060000000000049020008490200084902000897
:100070004902000849020008000000004902000887
:10008000000000004902000800000000000000001D
:100090004902000800000000490200084902000867
:1000A0004902000849020008490200084902000804
:1000B000490200084902000800F042F800F004F884
:1000C00000F07CF9FEE7000080B582B000AF164B6F
:1000D0007B60164B3B6007E07A68131D7B603B68D2
:1000E000191D396012681A603A68114B9A42F3D3AD
:1000F00004E03B681A1D3A6000221A603A680D4B12
:100100009A42F6D30C4B3B6004E03B681A1D3A6000
:100110001B6898473A68094B9A42F6D3C046C046D6
:10012000BD4602B080BDC0463C040008000000206F
:1001300000000020000000203C0400083C040008EF
:1001400080B500AF3B4B1A683A4B01210A431A6055
:10015000C046384B1B6804221340FAD0354B0122AD
:10016000DA60C046334BDB680C221340042BF9D114
:10017000314B1A68304B02210A431A602E4B1A6821
:100180002D4B01210A431A602A4B9A6B294B80217F
:1001900049050A439A63294B802212011A60C0461E
:1001A000264B5B6810221340FAD1224BDA68214BB0
:1001B00023490A40DA601F4BDA681E4B8821C903C5
:1001C0000A43DA601B4A1B4BD268DA60194A194BA2
:1001D000D268DA60174A174BD268DA60154B1A6892
:1001E000144B18490A401A60124B1A68114B8021AF
:1001F00049040A431A60C0460E4B1A6880239B04C8
:100200001340F9D00B4BDA680A4B03218A43DA60BA
:10021000084BDA68074B03210A43DA60C046054BF6
:10022000DB680C2213400C2BF9D1C046C046BD46FA
:1002300080BDC04600100240002002400070004017
:10024000FFFF02FFFFFFFFFE80B500AFFEE780B5B6
:1002500000AFFEE780B500AF0A4B0B4A5A60094B6E
:1002600000229A60074B05221A60C046054B1A68A7
:1002700080235B021340F9D0024B00221A60C04673
:10028000BD4680BD10E000E0FF7C000080B582B07C
:1002900000AF786001E0FFF7DDFF7B685A1E7A60EF
:1002A000002BF8D1C046C046BD4602B080BD80B527
:1002B00000AF214BDA6A204B02210A43DA621E4B5F
:1002C0009A6B1D4B802189030A439A631B4B1B6861
:1002D0001B4A1A40194B802189010A431A60174BA7
:1002E0001A6A164B802149040A431A62134B1B6891
:1002F000144A1A40114B802109020A431A600F4B1D
:100300001A6A0E4B802149050A431A620B4B5A6840
:100310000A4BC0210A435A60084B9A68074BA02138
:10032000C9010A439A60084B084A1A61064B012228
:100330001A60C046BD4680BD001002400004005057
:10034000FFCFFFFFFF3FFFFF00540040130F42703D
:1003500080B582B000AF0200FB1D1A70BB1D0A1CE5
:100360001A70FB1D1B785B00802252021A43124B4D
:100370005A60114B5A68104B802189010A435A6018
:10038000C0460D4B9B6902221340FAD00A4BBA1D9E
:1003900012789A62C046084B9B6940221340FAD0FB
:1003A000054B5A68044B8021C9010A435A60C04674
:1003B000BD4602B080BDC0460054004080B500AFCD
:1003C000FFF775FF1A4BDA6A194B01210A43DA620B
:1003D000A023DB051B68174A1A40A023DB058021F8
:1003E00049020A431A60A023DB055A69A023DB05F2
:1003F000802149000A435A6101214220FFF7A8FFEA
:10040000FA235B001800FFF741FFA023DB055A69C0
:10041000A023DB0508490A405A6100214220FFF76A
:1004200097FFFA235B001800FFF730FFDBE7C046B9
:0C04300000100240FFFFFCFFFFFEFFFF7A
:04000005080000B936
:00000001FF
